{
  "contractName": "Reti",
  "abi": [
    {
      "constant": true,
      "inputs": [],
      "name": "name",
      "outputs": [
        {
          "name": "",
          "type": "string"
        }
      ],
      "payable": false,
      "stateMutability": "view",
      "type": "function"
    },
    {
      "constant": true,
      "inputs": [],
      "name": "decimals",
      "outputs": [
        {
          "name": "",
          "type": "uint8"
        }
      ],
      "payable": false,
      "stateMutability": "view",
      "type": "function"
    },
    {
      "constant": true,
      "inputs": [],
      "name": "symbol",
      "outputs": [
        {
          "name": "",
          "type": "string"
        }
      ],
      "payable": false,
      "stateMutability": "view",
      "type": "function"
    },
    {
      "inputs": [
        {
          "name": "total",
          "type": "uint256"
        }
      ],
      "payable": false,
      "stateMutability": "nonpayable",
      "type": "constructor"
    },
    {
      "anonymous": false,
      "inputs": [
        {
          "indexed": true,
          "name": "tokenOwner",
          "type": "address"
        },
        {
          "indexed": true,
          "name": "spender",
          "type": "address"
        },
        {
          "indexed": false,
          "name": "tokens",
          "type": "uint256"
        }
      ],
      "name": "Approval",
      "type": "event"
    },
    {
      "anonymous": false,
      "inputs": [
        {
          "indexed": true,
          "name": "from",
          "type": "address"
        },
        {
          "indexed": true,
          "name": "to",
          "type": "address"
        },
        {
          "indexed": false,
          "name": "tokens",
          "type": "uint256"
        }
      ],
      "name": "Transfer",
      "type": "event"
    },
    {
      "constant": true,
      "inputs": [],
      "name": "totalSupply",
      "outputs": [
        {
          "name": "",
          "type": "uint256"
        }
      ],
      "payable": false,
      "stateMutability": "view",
      "type": "function"
    },
    {
      "constant": true,
      "inputs": [
        {
          "name": "tokenOwner",
          "type": "address"
        }
      ],
      "name": "balanceOf",
      "outputs": [
        {
          "name": "",
          "type": "uint256"
        }
      ],
      "payable": false,
      "stateMutability": "view",
      "type": "function"
    },
    {
      "constant": false,
      "inputs": [
        {
          "name": "receiver",
          "type": "address"
        },
        {
          "name": "numTokens",
          "type": "uint256"
        }
      ],
      "name": "transfer",
      "outputs": [
        {
          "name": "",
          "type": "bool"
        }
      ],
      "payable": false,
      "stateMutability": "nonpayable",
      "type": "function"
    },
    {
      "constant": false,
      "inputs": [
        {
          "name": "receivers",
          "type": "address[]"
        },
        {
          "name": "tokens",
          "type": "uint256[]"
        }
      ],
      "name": "multipleTransfer",
      "outputs": [
        {
          "name": "",
          "type": "bool"
        }
      ],
      "payable": false,
      "stateMutability": "nonpayable",
      "type": "function"
    },
    {
      "constant": false,
      "inputs": [
        {
          "name": "delegate",
          "type": "address"
        },
        {
          "name": "numTokens",
          "type": "uint256"
        }
      ],
      "name": "approve",
      "outputs": [
        {
          "name": "",
          "type": "bool"
        }
      ],
      "payable": false,
      "stateMutability": "nonpayable",
      "type": "function"
    },
    {
      "constant": false,
      "inputs": [
        {
          "name": "spender",
          "type": "address"
        },
        {
          "name": "tokens",
          "type": "uint256"
        }
      ],
      "name": "approveAndCall",
      "outputs": [
        {
          "name": "success",
          "type": "bool"
        }
      ],
      "payable": false,
      "stateMutability": "nonpayable",
      "type": "function"
    },
    {
      "constant": true,
      "inputs": [
        {
          "name": "owner",
          "type": "address"
        },
        {
          "name": "delegate",
          "type": "address"
        }
      ],
      "name": "allowance",
      "outputs": [
        {
          "name": "",
          "type": "uint256"
        }
      ],
      "payable": false,
      "stateMutability": "view",
      "type": "function"
    },
    {
      "constant": false,
      "inputs": [
        {
          "name": "owner",
          "type": "address"
        },
        {
          "name": "buyer",
          "type": "address"
        },
        {
          "name": "numTokens",
          "type": "uint256"
        }
      ],
      "name": "transferFrom",
      "outputs": [
        {
          "name": "",
          "type": "bool"
        }
      ],
      "payable": false,
      "stateMutability": "nonpayable",
      "type": "function"
    }
  ],
  "bytecode": "0x608060405234801561001057600080fd5b506040516020806112378339810180604052602081101561003057600080fd5b8101908080519060200190929190505050336000806101000a81548173ffffffffffffffffffffffffffffffffffffffff021916908373ffffffffffffffffffffffffffffffffffffffff16021790555080600381905550600354600160008060009054906101000a900473ffffffffffffffffffffffffffffffffffffffff1673ffffffffffffffffffffffffffffffffffffffff1673ffffffffffffffffffffffffffffffffffffffff1681526020019081526020016000208190555050611138806100ff6000396000f3fe6080604052600436106100af576000357c0100000000000000000000000000000000000000000000000000000000900463ffffffff16806306fdde03146100b4578063095ea7b3146101445780630be2858e146101b757806318160ddd1461032857806323b872dd14610353578063313ce567146103e65780633177029f1461041757806370a082311461048a57806395d89b41146104ef578063a9059cbb1461057f578063dd62ed3e146105f2575b600080fd5b3480156100c057600080fd5b506100c9610677565b6040518080602001828103825283818151815260200191508051906020019080838360005b838110156101095780820151818401526020810190506100ee565b50505050905090810190601f1680156101365780820380516001836020036101000a031916815260200191505b509250505060405180910390f35b34801561015057600080fd5b5061019d6004803603604081101561016757600080fd5b81019080803573ffffffffffffffffffffffffffffffffffffffff169060200190929190803590602001909291905050506106b0565b604051808215151515815260200191505060405180910390f35b3480156101c357600080fd5b5061030e600480360360408110156101da57600080fd5b81019080803590602001906401000000008111156101f757600080fd5b82018360208201111561020957600080fd5b8035906020019184602083028401116401000000008311171561022b57600080fd5b919080806020026020016040519081016040528093929190818152602001838360200280828437600081840152601f19601f8201169050808301925050505050505091929192908035906020019064010000000081111561028b57600080fd5b82018360208201111561029d57600080fd5b803590602001918460208302840111640100000000831117156102bf57600080fd5b919080806020026020016040519081016040528093929190818152602001838360200280828437600081840152601f19601f8201169050808301925050505050505091929192905050506107a2565b604051808215151515815260200191505060405180910390f35b34801561033457600080fd5b5061033d61086f565b6040518082815260200191505060405180910390f35b34801561035f57600080fd5b506103cc6004803603606081101561037657600080fd5b81019080803573ffffffffffffffffffffffffffffffffffffffff169060200190929190803573ffffffffffffffffffffffffffffffffffffffff16906020019092919080359060200190929190505050610879565b604051808215151515815260200191505060405180910390f35b3480156103f257600080fd5b506103fb610bfd565b604051808260ff1660ff16815260200191505060405180910390f35b34801561042357600080fd5b506104706004803603604081101561043a57600080fd5b81019080803573ffffffffffffffffffffffffffffffffffffffff16906020019092919080359060200190929190505050610c02565b604051808215151515815260200191505060405180910390f35b34801561049657600080fd5b506104d9600480360360208110156104ad57600080fd5b81019080803573ffffffffffffffffffffffffffffffffffffffff169060200190929190505050610de3565b6040518082815260200191505060405180910390f35b3480156104fb57600080fd5b50610504610e2c565b6040518080602001828103825283818151815260200191508051906020019080838360005b83811015610544578082015181840152602081019050610529565b50505050905090810190601f1680156105715780820380516001836020036101000a031916815260200191505b509250505060405180910390f35b34801561058b57600080fd5b506105d8600480360360408110156105a257600080fd5b81019080803573ffffffffffffffffffffffffffffffffffffffff16906020019092919080359060200190929190505050610e65565b604051808215151515815260200191505060405180910390f35b3480156105fe57600080fd5b506106616004803603604081101561061557600080fd5b81019080803573ffffffffffffffffffffffffffffffffffffffff169060200190929190803573ffffffffffffffffffffffffffffffffffffffff16906020019092919050505061104e565b6040518082815260200191505060405180910390f35b6040805190810160405280600481526020017f526574690000000000000000000000000000000000000000000000000000000081525081565b600081600260003373ffffffffffffffffffffffffffffffffffffffff1673ffffffffffffffffffffffffffffffffffffffff16815260200190815260200160002060008573ffffffffffffffffffffffffffffffffffffffff1673ffffffffffffffffffffffffffffffffffffffff168152602001908152602001600020819055508273ffffffffffffffffffffffffffffffffffffffff163373ffffffffffffffffffffffffffffffffffffffff167f8c5be1e5ebec7d5bd14f71427d1e84f3dd0314c0f7b2291e5b200ac8c7c3b925846040518082815260200191505060405180910390a36001905092915050565b60008060009054906101000a900473ffffffffffffffffffffffffffffffffffffffff1673ffffffffffffffffffffffffffffffffffffffff163373ffffffffffffffffffffffffffffffffffffffff161415156107ff57600080fd5b8151835114151561080f57600080fd5b60008090505b835181101561086457610856848281518110151561082f57fe5b90602001906020020151848381518110151561084757fe5b90602001906020020151610e65565b508080600101915050610815565b506001905092915050565b6000600354905090565b6000600160008573ffffffffffffffffffffffffffffffffffffffff1673ffffffffffffffffffffffffffffffffffffffff1681526020019081526020016000205482111515156108c957600080fd5b600260008573ffffffffffffffffffffffffffffffffffffffff1673ffffffffffffffffffffffffffffffffffffffff16815260200190815260200160002060003373ffffffffffffffffffffffffffffffffffffffff1673ffffffffffffffffffffffffffffffffffffffff16815260200190815260200160002054821115151561095457600080fd5b6109a682600160008773ffffffffffffffffffffffffffffffffffffffff1673ffffffffffffffffffffffffffffffffffffffff168152602001908152602001600020546110d590919063ffffffff16565b600160008673ffffffffffffffffffffffffffffffffffffffff1673ffffffffffffffffffffffffffffffffffffffff16815260200190815260200160002081905550610a7882600260008773ffffffffffffffffffffffffffffffffffffffff1673ffffffffffffffffffffffffffffffffffffffff16815260200190815260200160002060003373ffffffffffffffffffffffffffffffffffffffff1673ffffffffffffffffffffffffffffffffffffffff168152602001908152602001600020546110d590919063ffffffff16565b600260008673ffffffffffffffffffffffffffffffffffffffff1673ffffffffffffffffffffffffffffffffffffffff16815260200190815260200160002060003373ffffffffffffffffffffffffffffffffffffffff1673ffffffffffffffffffffffffffffffffffffffff16815260200190815260200160002081905550610b4a82600160008673ffffffffffffffffffffffffffffffffffffffff1673ffffffffffffffffffffffffffffffffffffffff168152602001908152602001600020546110ee90919063ffffffff16565b600160008573ffffffffffffffffffffffffffffffffffffffff1673ffffffffffffffffffffffffffffffffffffffff168152602001908152602001600020819055508273ffffffffffffffffffffffffffffffffffffffff168473ffffffffffffffffffffffffffffffffffffffff167fddf252ad1be2c89b69c2b068fc378daa952ba7f163c4a11628f55a4df523b3ef846040518082815260200191505060405180910390a3600190509392505050565b600081565b600081600260003373ffffffffffffffffffffffffffffffffffffffff1673ffffffffffffffffffffffffffffffffffffffff16815260200190815260200160002060008573ffffffffffffffffffffffffffffffffffffffff1673ffffffffffffffffffffffffffffffffffffffff168152602001908152602001600020819055508273ffffffffffffffffffffffffffffffffffffffff163373ffffffffffffffffffffffffffffffffffffffff167f8c5be1e5ebec7d5bd14f71427d1e84f3dd0314c0f7b2291e5b200ac8c7c3b925846040518082815260200191505060405180910390a38273ffffffffffffffffffffffffffffffffffffffff16634889ca883384306040518463ffffffff167c0100000000000000000000000000000000000000000000000000000000028152600401808473ffffffffffffffffffffffffffffffffffffffff1673ffffffffffffffffffffffffffffffffffffffff1681526020018381526020018273ffffffffffffffffffffffffffffffffffffffff1673ffffffffffffffffffffffffffffffffffffffff1681526020019350505050600060405180830381600087803b158015610dc157600080fd5b505af1158015610dd5573d6000803e3d6000fd5b505050506001905092915050565b6000600160008373ffffffffffffffffffffffffffffffffffffffff1673ffffffffffffffffffffffffffffffffffffffff168152602001908152602001600020549050919050565b6040805190810160405280600481526020017f524554490000000000000000000000000000000000000000000000000000000081525081565b6000600160003373ffffffffffffffffffffffffffffffffffffffff1673ffffffffffffffffffffffffffffffffffffffff168152602001908152602001600020548211151515610eb557600080fd5b610f0782600160003373ffffffffffffffffffffffffffffffffffffffff1673ffffffffffffffffffffffffffffffffffffffff168152602001908152602001600020546110d590919063ffffffff16565b600160003373ffffffffffffffffffffffffffffffffffffffff1673ffffffffffffffffffffffffffffffffffffffff16815260200190815260200160002081905550610f9c82600160008673ffffffffffffffffffffffffffffffffffffffff1673ffffffffffffffffffffffffffffffffffffffff168152602001908152602001600020546110ee90919063ffffffff16565b600160008573ffffffffffffffffffffffffffffffffffffffff1673ffffffffffffffffffffffffffffffffffffffff168152602001908152602001600020819055508273ffffffffffffffffffffffffffffffffffffffff163373ffffffffffffffffffffffffffffffffffffffff167fddf252ad1be2c89b69c2b068fc378daa952ba7f163c4a11628f55a4df523b3ef846040518082815260200191505060405180910390a36001905092915050565b6000600260008473ffffffffffffffffffffffffffffffffffffffff1673ffffffffffffffffffffffffffffffffffffffff16815260200190815260200160002060008373ffffffffffffffffffffffffffffffffffffffff1673ffffffffffffffffffffffffffffffffffffffff16815260200190815260200160002054905092915050565b60008282111515156110e357fe5b818303905092915050565b600080828401905083811015151561110257fe5b809150509291505056fea165627a7a72305820283ab9d2a9ea11af58f74013291d48a1d9f210279dfbb13a5da85155868aafec0029",
  "source": "pragma solidity ^0.5.0;\n\ninterface ApproveAndCallFallBack {\n    function receiveApproval(address from, uint256 tokens, address token) external;\n}\n\ncontract Reti {\n\n    address private _owner;\n    string public constant name = \"Reti\";\n    string public constant symbol = \"RETI\";\n    uint8 public constant decimals = 0;  \n\n    event Approval(address indexed tokenOwner, address indexed spender, uint tokens);\n    event Transfer(address indexed from, address indexed to, uint tokens);\n\n\n    mapping(address => uint256) balances;\n    mapping(address => mapping (address => uint256)) allowed;\n    \n    uint256 totalSupply_;\n\n    using SafeMath for uint256;\n\n    constructor(uint256 total) public {  \n\t    _owner = msg.sender;\n\t    totalSupply_ = total;\n\t    balances[_owner] = totalSupply_;\n    }  \n\n    function totalSupply() public view returns (uint256) {\n\t    return totalSupply_;\n    }\n    \n    function balanceOf(address tokenOwner) public view returns (uint) {\n        return balances[tokenOwner];\n    }\n\n    function transfer(address receiver, uint numTokens) public returns (bool) {\n        require(numTokens <= balances[msg.sender]);\n        balances[msg.sender] = balances[msg.sender].sub(numTokens);\n        balances[receiver] = balances[receiver].add(numTokens);\n        emit Transfer(msg.sender, receiver, numTokens);\n        return true;\n    }\n    \n    function multipleTransfer(address[] memory receivers, uint[] memory tokens) public returns (bool) {\n        require(msg.sender == _owner);\n        require(receivers.length == tokens.length);\n        for (uint i=0; i < receivers.length; i++) {\n            transfer(receivers[i], tokens[i]);\n        }\n        return true;\n    }\n    \n    function approve(address delegate, uint numTokens) public returns (bool) {\n        allowed[msg.sender][delegate] = numTokens;\n        emit Approval(msg.sender, delegate, numTokens);\n        return true;\n    }\n    \n    //spender = address smart contract\n    function approveAndCall(address spender, uint tokens) public returns (bool success) {\n        allowed[msg.sender][spender] = tokens;\n        emit Approval(msg.sender, spender, tokens);\n        ApproveAndCallFallBack(spender).receiveApproval(msg.sender, tokens, address(this));\n        return true;\n    }\n\n    function allowance(address owner, address delegate) public view returns (uint) {\n        return allowed[owner][delegate];\n    }\n\n    function transferFrom(address owner, address buyer, uint numTokens) public returns (bool) {\n        require(numTokens <= balances[owner]);    \n        require(numTokens <= allowed[owner][msg.sender]);\n    \n        balances[owner] = balances[owner].sub(numTokens);\n        allowed[owner][msg.sender] = allowed[owner][msg.sender].sub(numTokens);\n        balances[buyer] = balances[buyer].add(numTokens);\n        emit Transfer(owner, buyer, numTokens);\n        return true;\n    }\n}\n\nlibrary SafeMath { \n    function sub(uint256 a, uint256 b) internal pure returns (uint256) {\n      assert(b <= a);\n      return a - b;\n    }\n    \n    function add(uint256 a, uint256 b) internal pure returns (uint256) {\n      uint256 c = a + b;\n      assert(c >= a);\n      return c;\n    }\n}\n",
  "sourcePath": "/home/ovsdemo/ovsoftware/CustomerPortal/contracts/reti.sol",
  "compiler": {
    "name": "solc",
    "version": "0.5.0+commit.1d4f565a.Emscripten.clang"
  },
  "schemaVersion": "3.0.6",
  "updatedAt": "2019-04-13T15:13:36.389Z",
  "devdoc": {
    "methods": {}
  },
  "userdoc": {
    "methods": {}
  }
}