{
  "contractName": "VoteForProject",
  "abi": [
    {
      "inputs": [
        {
          "name": "reti",
          "type": "address"
        },
        {
          "name": "name",
          "type": "string"
        },
        {
          "name": "wallet",
          "type": "address"
        },
        {
          "name": "numVotesNeeded",
          "type": "uint256"
        }
      ],
      "payable": false,
      "stateMutability": "nonpayable",
      "type": "constructor"
    },
    {
      "constant": false,
      "inputs": [
        {
          "name": "from",
          "type": "address"
        },
        {
          "name": "tokens",
          "type": "uint256"
        },
        {
          "name": "token",
          "type": "address"
        }
      ],
      "name": "receiveApproval",
      "outputs": [],
      "payable": false,
      "stateMutability": "nonpayable",
      "type": "function"
    },
    {
      "constant": true,
      "inputs": [],
      "name": "getNumOfVoters",
      "outputs": [
        {
          "name": "",
          "type": "uint256"
        }
      ],
      "payable": false,
      "stateMutability": "view",
      "type": "function"
    },
    {
      "constant": true,
      "inputs": [],
      "name": "getProject",
      "outputs": [
        {
          "name": "",
          "type": "string"
        },
        {
          "name": "",
          "type": "address"
        },
        {
          "name": "",
          "type": "uint256"
        },
        {
          "name": "",
          "type": "uint256"
        }
      ],
      "payable": false,
      "stateMutability": "view",
      "type": "function"
    }
  ],
  "bytecode": "0x608060405234801561001057600080fd5b506040516106ec3803806106ec8339810180604052608081101561003357600080fd5b8101908080519060200190929190805164010000000081111561005557600080fd5b8281019050602081018481111561006b57600080fd5b815185600182028301116401000000008211171561008857600080fd5b5050929190602001805190602001909291908051906020019092919050505083600660006101000a81548173ffffffffffffffffffffffffffffffffffffffff021916908373ffffffffffffffffffffffffffffffffffffffff160217905550826002600001908051906020019061010192919061019a565b5081600260010160006101000a81548173ffffffffffffffffffffffffffffffffffffffff021916908373ffffffffffffffffffffffffffffffffffffffff1602179055508060026003018190555033600160006101000a81548173ffffffffffffffffffffffffffffffffffffffff021916908373ffffffffffffffffffffffffffffffffffffffff1602179055505050505061023f565b828054600181600116156101000203166002900490600052602060002090601f016020900481019282601f106101db57805160ff1916838001178555610209565b82800160010185558215610209579182015b828111156102085782518255916020019190600101906101ed565b5b509050610216919061021a565b5090565b61023c91905b80821115610238576000816000905550600101610220565b5090565b90565b61049e8061024e6000396000f3fe608060405260043610610057576000357c0100000000000000000000000000000000000000000000000000000000900463ffffffff1680634889ca881461005c57806365fc783c146100d75780636e57b70014610102575b600080fd5b34801561006857600080fd5b506100d56004803603606081101561007f57600080fd5b81019080803573ffffffffffffffffffffffffffffffffffffffff16906020019092919080359060200190929190803573ffffffffffffffffffffffffffffffffffffffff1690602001909291905050506101d3565b005b3480156100e357600080fd5b506100ec610382565b6040518082815260200191505060405180910390f35b34801561010e57600080fd5b5061011761038b565b60405180806020018573ffffffffffffffffffffffffffffffffffffffff1673ffffffffffffffffffffffffffffffffffffffff168152602001848152602001838152602001828103825286818151815260200191508051906020019080838360005b8381101561019557808201518184015260208101905061017a565b50505050905090810190601f1680156101c25780820380516001836020036101000a031916815260200191505b509550505050505060405180910390f35b600660009054906101000a900473ffffffffffffffffffffffffffffffffffffffff1673ffffffffffffffffffffffffffffffffffffffff168173ffffffffffffffffffffffffffffffffffffffff1614151561022f57600080fd5b60008190506002600301546002800154101561037c578073ffffffffffffffffffffffffffffffffffffffff166323b872dd8530866040518463ffffffff167c0100000000000000000000000000000000000000000000000000000000028152600401808473ffffffffffffffffffffffffffffffffffffffff1673ffffffffffffffffffffffffffffffffffffffff1681526020018373ffffffffffffffffffffffffffffffffffffffff1673ffffffffffffffffffffffffffffffffffffffff1681526020018281526020019350505050602060405180830381600087803b15801561031c57600080fd5b505af1158015610330573d6000803e3d6000fd5b505050506040513d602081101561034657600080fd5b81019080805190602001909291905050505082600280016000828254019250508190555060008081548092919060010191905055505b50505050565b60008054905090565b606060008060006002600001600260010160009054906101000a900473ffffffffffffffffffffffffffffffffffffffff166002800154600260030154838054600181600116156101000203166002900480601f01602080910402602001604051908101604052809291908181526020018280546001816001161561010002031660029004801561045d5780601f106104325761010080835404028352916020019161045d565b820191906000526020600020905b81548152906001019060200180831161044057829003601f168201915b5050505050935093509350935093509091929356fea165627a7a7230582029fa8c4dbfae1847f041089da28d109b26fdf73d0dfae918f152d0ab44277d550029",
  "source": "pragma solidity ^0.5.0;\n\nimport './reti.sol';\n\ncontract VoteForProject {\n    // describes a Project\n    struct Project {\n        string name;\n        address wallet; \n        uint numVotes;\n        uint numVotesNeeded;\n    }\n\n    // These state variables are used keep track of the number of Candidates/Voters \n    // and used to as a way to index them     \n    uint numVoters;\n    address owner;\n    Project project;\n    address _reti;\n    \n    constructor(address reti, string memory name, address wallet, uint numVotesNeeded) public {\n        _reti = reti;\n        project.name = name;\n        project.wallet = wallet;\n        project.numVotesNeeded = numVotesNeeded;\n        owner = msg.sender;\n    }\n    function receiveApproval(address from, uint256 tokens, address token) public {\n        require(token == _reti);\n        Reti reti = Reti(token);\n        if(project.numVotes < project.numVotesNeeded) {\n            reti.transferFrom(from, address(this), tokens);\n            project.numVotes += tokens; \n            numVoters++;\n        }\n        /* to be implemented: whe numvotes >= votesneeded transfer to wallet of project*/\n    }\n\n    function getNumOfVoters() public view returns(uint) {\n        return numVoters;\n    }\n    \n    function getProject() public view returns (string memory, address, uint, uint) {\n        return (project.name, project.wallet, project.numVotes, project.numVotesNeeded);\n    }\n}\n",
  "sourcePath": "/home/ovsdemo/ovsoftware/CustomerPortal/contracts/voteforproject.sol",
  "compiler": {
    "name": "solc",
    "version": "0.5.0+commit.1d4f565a.Emscripten.clang"
  },
  "schemaVersion": "3.0.6",
  "updatedAt": "2019-04-13T16:52:26.390Z",
  "devdoc": {
    "methods": {}
  },
  "userdoc": {
    "methods": {}
  }
}